{
  "contractName": "Transaction",
  "abi": [
    {
      "constant": true,
      "inputs": [
        {
          "name": "",
          "type": "uint256"
        }
      ],
      "name": "transactions",
      "outputs": [
        {
          "name": "senderName",
          "type": "string"
        },
        {
          "name": "senderAddress",
          "type": "address"
        },
        {
          "name": "receiver",
          "type": "address"
        },
        {
          "name": "amount",
          "type": "uint256"
        },
        {
          "name": "timestamp",
          "type": "string"
        }
      ],
      "payable": false,
      "stateMutability": "view",
      "type": "function",
      "signature": "0x9ace38c2"
    },
    {
      "constant": true,
      "inputs": [],
      "name": "transactionCount",
      "outputs": [
        {
          "name": "",
          "type": "uint256"
        }
      ],
      "payable": false,
      "stateMutability": "view",
      "type": "function",
      "signature": "0xb77bf600"
    },
    {
      "anonymous": false,
      "inputs": [
        {
          "indexed": false,
          "name": "senderName",
          "type": "string"
        },
        {
          "indexed": false,
          "name": "senderAddress",
          "type": "address"
        },
        {
          "indexed": false,
          "name": "receiver",
          "type": "address"
        },
        {
          "indexed": false,
          "name": "amount",
          "type": "uint256"
        },
        {
          "indexed": false,
          "name": "timestamp",
          "type": "string"
        }
      ],
      "name": "newTransaction",
      "type": "event",
      "signature": "0x85f0433dee288abecfc3f3b378ee35c5093b1b8aa5a0b5fd540f0b2a97c25da0"
    },
    {
      "constant": false,
      "inputs": [
        {
          "name": "_senderName",
          "type": "string"
        },
        {
          "name": "_timeStamp",
          "type": "string"
        },
        {
          "name": "_receiver",
          "type": "address"
        },
        {
          "name": "_amount",
          "type": "uint256"
        }
      ],
      "name": "addNewTransactionEntry",
      "outputs": [],
      "payable": true,
      "stateMutability": "payable",
      "type": "function",
      "signature": "0x04e2cf34"
    }
  ],
  "bytecode": "0x60806040526000805534801561001457600080fd5b50610958806100246000396000f3fe608060405260043610610057576000357c0100000000000000000000000000000000000000000000000000000000900463ffffffff16806304e2cf341461005c5780639ace38c2146101d8578063b77bf60014610365575b600080fd5b6101d66004803603608081101561007257600080fd5b810190808035906020019064010000000081111561008f57600080fd5b8201836020820111156100a157600080fd5b803590602001918460018302840111640100000000831117156100c357600080fd5b91908080601f016020809104026020016040519081016040528093929190818152602001838380828437600081840152601f19601f8201169050808301925050505050505091929192908035906020019064010000000081111561012657600080fd5b82018360208201111561013857600080fd5b8035906020019184600183028401116401000000008311171561015a57600080fd5b91908080601f016020809104026020016040519081016040528093929190818152602001838380828437600081840152601f19601f820116905080830192505050505050509192919290803573ffffffffffffffffffffffffffffffffffffffff16906020019092919080359060200190929190505050610390565b005b3480156101e457600080fd5b50610211600480360360208110156101fb57600080fd5b81019080803590602001909291905050506106db565b60405180806020018673ffffffffffffffffffffffffffffffffffffffff1673ffffffffffffffffffffffffffffffffffffffff1681526020018573ffffffffffffffffffffffffffffffffffffffff1673ffffffffffffffffffffffffffffffffffffffff16815260200184815260200180602001838103835288818151815260200191508051906020019080838360005b838110156102bf5780820151818401526020810190506102a4565b50505050905090810190601f1680156102ec5780820380516001836020036101000a031916815260200191505b50838103825284818151815260200191508051906020019080838360005b8381101561032557808201518184015260208101905061030a565b50505050905090810190601f1680156103525780820380516001836020036101000a031916815260200191505b5097505050505050505060405180910390f35b34801561037157600080fd5b5061037a610881565b6040518082815260200191505060405180910390f35b600073ffffffffffffffffffffffffffffffffffffffff163373ffffffffffffffffffffffffffffffffffffffff16141515156103cc57600080fd5b600080815480929190600101919050555060008073ffffffffffffffffffffffffffffffffffffffff168373ffffffffffffffffffffffffffffffffffffffff16141561041a57600061041c565b825b905060a0604051908101604052808681526020013373ffffffffffffffffffffffffffffffffffffffff1681526020018273ffffffffffffffffffffffffffffffffffffffff16815260200183815260200185815250600160008054815260200190815260200160002060008201518160000190805190602001906104a2929190610887565b5060208201518160010160006101000a81548173ffffffffffffffffffffffffffffffffffffffff021916908373ffffffffffffffffffffffffffffffffffffffff16021790555060408201518160020160006101000a81548173ffffffffffffffffffffffffffffffffffffffff021916908373ffffffffffffffffffffffffffffffffffffffff160217905550606082015181600301556080820151816004019080519060200190610557929190610887565b509050507f85f0433dee288abecfc3f3b378ee35c5093b1b8aa5a0b5fd540f0b2a97c25da0853383858860405180806020018673ffffffffffffffffffffffffffffffffffffffff1673ffffffffffffffffffffffffffffffffffffffff1681526020018573ffffffffffffffffffffffffffffffffffffffff1673ffffffffffffffffffffffffffffffffffffffff16815260200184815260200180602001838103835288818151815260200191508051906020019080838360005b8381101561062f578082015181840152602081019050610614565b50505050905090810190601f16801561065c5780820380516001836020036101000a031916815260200191505b50838103825284818151815260200191508051906020019080838360005b8381101561069557808201518184015260208101905061067a565b50505050905090810190601f1680156106c25780820380516001836020036101000a031916815260200191505b5097505050505050505060405180910390a15050505050565b6001602052806000526040600020600091509050806000018054600181600116156101000203166002900480601f0160208091040260200160405190810160405280929190818152602001828054600181600116156101000203166002900480156107875780601f1061075c57610100808354040283529160200191610787565b820191906000526020600020905b81548152906001019060200180831161076a57829003601f168201915b5050505050908060010160009054906101000a900473ffffffffffffffffffffffffffffffffffffffff16908060020160009054906101000a900473ffffffffffffffffffffffffffffffffffffffff1690806003015490806004018054600181600116156101000203166002900480601f0160208091040260200160405190810160405280929190818152602001828054600181600116156101000203166002900480156108775780601f1061084c57610100808354040283529160200191610877565b820191906000526020600020905b81548152906001019060200180831161085a57829003601f168201915b5050505050905085565b60005481565b828054600181600116156101000203166002900490600052602060002090601f016020900481019282601f106108c857805160ff19168380011785556108f6565b828001600101855582156108f6579182015b828111156108f55782518255916020019190600101906108da565b5b5090506109039190610907565b5090565b61092991905b8082111561092557600081600090555060010161090d565b5090565b9056fea165627a7a72305820639ac6621367632ceb0fa6908b0a0157e07e9706a418ae90cf2549bce46994ec0029",
  "source": "pragma solidity ^0.5.0;\r\n\r\n\r\ncontract Transaction{\r\n    uint public transactionCount=0;\r\n\r\n    struct transaction{\r\n        string senderName;\r\n        address senderAddress;\r\n        address receiver;\r\n        uint256 amount;\r\n        string timestamp;\r\n    }\r\n\r\n    event newTransaction(\r\n        string senderName,\r\n        address senderAddress,\r\n        address receiver,\r\n        uint256 amount,\r\n        string timestamp\r\n    );\r\n\r\n    mapping(uint=>transaction) public transactions;\r\n\r\n    function addNewTransactionEntry(string memory _senderName,string memory _timeStamp,address _receiver,uint256 _amount) public payable\r\n    {\r\n        require(msg.sender!=address(0));\r\n        transactionCount++;\r\n        address receiverDerived=_receiver!=address(0)?_receiver:address(0);\r\n        transactions[transactionCount]=transaction(_senderName,msg.sender,receiverDerived,_amount,_timeStamp);\r\n        emit newTransaction(_senderName,msg.sender,receiverDerived,_amount,_timeStamp);\r\n    }\r\n}",
  "sourcePath": "D:/web_development/Projects/Final Year/applicaiton/code/src/contracts/Transaction.sol",
  "compiler": {
    "name": "solc",
    "version": "0.5.0+commit.1d4f565a.Emscripten.clang"
  },
  "schemaVersion": "3.0.1",
  "updatedAt": "2021-11-17T04:13:16.136Z",
  "devdoc": {
    "methods": {}
  },
  "userdoc": {
    "methods": {}
  }
}