{
  "contractName": "User",
  "abi": [
    {
      "constant": true,
      "inputs": [],
      "name": "userCount",
      "outputs": [
        {
          "name": "",
          "type": "uint256"
        }
      ],
      "payable": false,
      "stateMutability": "view",
      "type": "function",
      "signature": "0x07973ccf"
    },
    {
      "constant": true,
      "inputs": [
        {
          "name": "",
          "type": "uint256"
        }
      ],
      "name": "users",
      "outputs": [
        {
          "name": "signupID",
          "type": "uint256"
        },
        {
          "name": "user_name",
          "type": "string"
        },
        {
          "name": "password_encrypted",
          "type": "string"
        },
        {
          "name": "user_address",
          "type": "address"
        }
      ],
      "payable": false,
      "stateMutability": "view",
      "type": "function",
      "signature": "0x365b98b2"
    },
    {
      "anonymous": false,
      "inputs": [
        {
          "indexed": false,
          "name": "user_id",
          "type": "uint256"
        },
        {
          "indexed": false,
          "name": "user_name",
          "type": "string"
        },
        {
          "indexed": false,
          "name": "password_encrypted",
          "type": "string"
        },
        {
          "indexed": false,
          "name": "user_address",
          "type": "address"
        }
      ],
      "name": "userAddition",
      "type": "event",
      "signature": "0x9da275cb15044e77889d429d6014d87d963866aa4c280f5f91c0d20339de38fd"
    },
    {
      "constant": false,
      "inputs": [
        {
          "name": "_userName",
          "type": "string"
        },
        {
          "name": "_passwordEncrypted",
          "type": "string"
        }
      ],
      "name": "addnewUser",
      "outputs": [],
      "payable": false,
      "stateMutability": "nonpayable",
      "type": "function",
      "signature": "0x40a61147"
    }
  ],
  "bytecode": "0x60806040526000805534801561001457600080fd5b50610825806100246000396000f3fe608060405260043610610057576000357c0100000000000000000000000000000000000000000000000000000000900463ffffffff16806307973ccf1461005c578063365b98b21461008757806340a61147146101e1575b600080fd5b34801561006857600080fd5b50610071610340565b6040518082815260200191505060405180910390f35b34801561009357600080fd5b506100c0600480360360208110156100aa57600080fd5b8101908080359060200190929190505050610346565b6040518085815260200180602001806020018473ffffffffffffffffffffffffffffffffffffffff1673ffffffffffffffffffffffffffffffffffffffff168152602001838103835286818151815260200191508051906020019080838360005b8381101561013c578082015181840152602081019050610121565b50505050905090810190601f1680156101695780820380516001836020036101000a031916815260200191505b50838103825285818151815260200191508051906020019080838360005b838110156101a2578082015181840152602081019050610187565b50505050905090810190601f1680156101cf5780820380516001836020036101000a031916815260200191505b50965050505050505060405180910390f35b3480156101ed57600080fd5b5061033e6004803603604081101561020457600080fd5b810190808035906020019064010000000081111561022157600080fd5b82018360208201111561023357600080fd5b8035906020019184600183028401116401000000008311171561025557600080fd5b91908080601f016020809104026020016040519081016040528093929190818152602001838380828437600081840152601f19601f820116905080830192505050505050509192919290803590602001906401000000008111156102b857600080fd5b8201836020820111156102ca57600080fd5b803590602001918460018302840111640100000000831117156102ec57600080fd5b91908080601f016020809104026020016040519081016040528093929190818152602001838380828437600081840152601f19601f8201169050808301925050505050505091929192905050506104c6565b005b60005481565b6001602052806000526040600020600091509050806000015490806001018054600181600116156101000203166002900480601f0160208091040260200160405190810160405280929190818152602001828054600181600116156101000203166002900480156103f85780601f106103cd576101008083540402835291602001916103f8565b820191906000526020600020905b8154815290600101906020018083116103db57829003601f168201915b505050505090806002018054600181600116156101000203166002900480601f0160208091040260200160405190810160405280929190818152602001828054600181600116156101000203166002900480156104965780601f1061046b57610100808354040283529160200191610496565b820191906000526020600020905b81548152906001019060200180831161047957829003601f168201915b5050505050908060030160009054906101000a900473ffffffffffffffffffffffffffffffffffffffff16905084565b600082511180156104d8575060008151115b80156105115750600073ffffffffffffffffffffffffffffffffffffffff163373ffffffffffffffffffffffffffffffffffffffff1614155b151561051c57600080fd5b600080815480929190600101919050555060806040519081016040528060005481526020018381526020018281526020013373ffffffffffffffffffffffffffffffffffffffff1681525060016000805481526020019081526020016000206000820151816000015560208201518160010190805190602001906105a1929190610754565b5060408201518160020190805190602001906105be929190610754565b5060608201518160030160006101000a81548173ffffffffffffffffffffffffffffffffffffffff021916908373ffffffffffffffffffffffffffffffffffffffff1602179055509050507f9da275cb15044e77889d429d6014d87d963866aa4c280f5f91c0d20339de38fd6000548383336040518085815260200180602001806020018473ffffffffffffffffffffffffffffffffffffffff1673ffffffffffffffffffffffffffffffffffffffff168152602001838103835286818151815260200191508051906020019080838360005b838110156106ac578082015181840152602081019050610691565b50505050905090810190601f1680156106d95780820380516001836020036101000a031916815260200191505b50838103825285818151815260200191508051906020019080838360005b838110156107125780820151818401526020810190506106f7565b50505050905090810190601f16801561073f5780820380516001836020036101000a031916815260200191505b50965050505050505060405180910390a15050565b828054600181600116156101000203166002900490600052602060002090601f016020900481019282601f1061079557805160ff19168380011785556107c3565b828001600101855582156107c3579182015b828111156107c25782518255916020019190600101906107a7565b5b5090506107d091906107d4565b5090565b6107f691905b808211156107f25760008160009055506001016107da565b5090565b9056fea165627a7a72305820091f8396eda9f83b1623cbcc097e211d052081ea7b6da17ed5036a379387f45c0029",
  "source": "pragma solidity ^0.5.0;\r\n\r\ncontract User {\r\n  uint public userCount = 0;\r\n\r\n  struct userStructure{\r\n    uint signupID;\r\n    string user_name;\r\n    string password_encrypted;\r\n    address payable user_address;\r\n  }\r\n\r\n  event userAddition(\r\n    uint user_id,\r\n    string user_name,\r\n    string password_encrypted,\r\n    address payable user_address\r\n  );  \r\n\r\n  mapping(uint=>userStructure) public users;\r\n  \r\n  function addnewUser(string memory _userName,string memory _passwordEncrypted) public\r\n  {\r\n    require(bytes(_userName).length>0  && bytes(_passwordEncrypted).length>0 && msg.sender!=address(0));\r\n    userCount++;\r\n    users[userCount]=userStructure(userCount,_userName,_passwordEncrypted,msg.sender);\r\n    emit userAddition(userCount,_userName,_passwordEncrypted,msg.sender);\r\n  }\r\n  \r\n \r\n}\r\n",
  "sourcePath": "D:/web_development/Projects/Final Year/applicaiton/code/src/contracts/User.sol",
  "compiler": {
    "name": "solc",
    "version": "0.5.0+commit.1d4f565a.Emscripten.clang"
  },
  "schemaVersion": "3.0.1",
  "updatedAt": "2021-11-17T04:13:16.135Z",
  "devdoc": {
    "methods": {}
  },
  "userdoc": {
    "methods": {}
  }
}